:100000000C944C1B0C948C1B0C948C1B0C948C1B14
:100010000C948C1B0C948C1B0C948C1B0C948C1BC4
:100020000C948C1B0C948C1B0C948C1B0C948C1BB4
:100030000C948C1B0D9497190C948C1B0C948C1B9A
:100040000C948C1B0C9436360C948C1B0C948C1BCF
:100050000C948C1B0C94AF340C948C1B0D944D1988
:100060000C948C1B0C9432D10C9428D10C948C1BC6
:100070000C948C1B0C948C1B0C948C1B0C948C1B64
:100080000C948C1B0C948C1B0C948C1B0C948C1B54
:100090000C948C1B0C948C1B0C948C1B0D94F61ED6
:1000A0000C948C1B0C948C1B0C948C1B0C948C1B34
:1000B0000C948C1B0C948C1B0C948C1B0C948C1B24
:1000C0000C948C1B0C948C1B0C948C1B0C948C1B14
:1000D0000C948C1B0C948C1B0C948C1B0C948C1B04
:1000E0000C948C1B084AD73B3BCE016E84BCBFFDF1
:1000F000C12F3D6C74319ABD56833DDA3D00C77FF8
:1001000011BED9E4BB4C3E916BAAAABE0000008090
:100110003F05A84CCDB2D44EB93836A9020C50B91F
:10012000918688083CA6AAAA2ABE000000803F004B
:100130000D94D0110D943D2B0D94F9110D94FF11D8
:100140000D94EB110D94B2110D94D9110D9403126D
:100150000D94DD110D94F5110D94C8110D94C41179
:100160000D94E3110D94AD110D94E7110D948423BA
:100170000D94F1110D94CC110D94D3114E414E49B3
:100180004E495459494E46CDCCCC3D0AD7233C1755
:10019000B7D13877CC2B329595E6241FB14F0A00A2
:1001A0000020410000C84200401C4620BCBE4CCA92
:1001B0001B0E5AAEC59D7441425300504C41002164
:1001C00000486F74656E6420746F6F20636F6C6499
:1001D000004261636B0050726F63656564004D6F30
:1001E0007665204578747275646572004F666600A6
:1001F0004F6E00536F667420456E6473746F707336
:10020000004732385A004732385900486F6D652030
:10021000400047323858004175746F20486F6D6553
:1002200000473238004D6F74696F6E004469736126
:10023000626C65205374657070657273004D38345C
:1002400000426564204C6576656C696E6700486F96
:100250006D696E67004D61696E0050726568656119
:1002600074202420426564005072656865617420C2
:100270002420456E640054656D70657261747572FA
:100280006500436F6F6C646F776E0046616E20533C
:100290007065656400426564004E6F7A7A6C650033
:1002A000BB01B701507265686561742024004D611F
:1002B000696E00466C6F770046616E20537065650D
:1002C0006400426564004E6F7A7A6C650042656432
:1002D000205A005370656564004D61696E006F704F
:1002E000656E00545249474745524544003A200044
:1002F0007A5F6D617800795F6D696E00785F6D6916
:100300006E005265706F7274696E6720656E6473FB
:10031000746F70207374617475730A0020746F6F4A
:10032000206C6F6E6720657874727573696F6E20CC
:1003300070726576656E7465640A0020636F6C6424
:1003400020657874727573696F6E2070726576655A
:100350006E7465640A00000020C100000000000007
:10036000BE425761726E696E673A20486F6D696E62
:10037000672042756D702044697669736F72203C06
:1003800020310A0002020400005C430000484300E0
:10039000004D430000A0400000A0400000004000CD
:1003A00000000100000001000080005555550000CC
:1003B00000400033333300AAAA2A004992240000E7
:1003C000002000C7711C0099991900D145170055EC
:1003D0005515003BB1130024491200111111000002
:1003E0000010000F0F0F00E3380E0043790D00CC12
:1003F000CC0C00C3300C00E8A20B0064210B00AA57
:10040000AA0A00703D0A009DD80900427B090092AB
:10041000240900DCD3080088880800104208000086
:10042000000800F0C10700878707007550070071BA
:100430001C07003EEB0600A1BC06006990060066A2
:10044000660600703E06006118060017F405007489
:10045000D105005BB00500B2900500627205005541
:1004600055050078390500B81E0500050505004E44
:10047000EC040087D40400A1BD040090A704004947
:10048000920400C17D0400EE690400C756040044D4
:100490004404005C32040008210400411004000000
:1004A0000004003FF00300F8E0030026D20300C37D
:1004B000C30300CCB503003AA803000A9B0300382D
:1004C0008E0300C08103009F750300D069030050B4
:1004D0005E03001D53030034480300913D030033C5
:1004E00033030016290300381F030097150300305B
:1004F0000C0300030303000BFA020049F10200BAE7
:10050000E802005CE002002DD802002DD002005964
:10051000C80200B0C0020031B90200DAB10200AA7C
:10052000AA0200A0A30200BC9C0200FA9502005C93
:100530008F0200DF88020082820200457C020027D1
:1005400076020027700200436A02007C640200D039
:100550005E02003F590200C8530200FFFDFCFAF89A
:10056000F6F4F2F0EEECEAE9E7E5E3E1E0DEDCDA0E
:10057000D9D7D5D4D2D0CFCDCBCAC8C7C5C3C2C0B6
:10058000BFBDBCBAB9B7B6B4B3B2B0AFADACAAA92F
:10059000A8A6A5A4A2A1A09E9D9C9A99989795947F
:1005A0009392908F8E8D8B8A8988878684838281AF
:1005B000807F7E7D7B7A79787776757473727170BF
:1005C0006F6E6D6C6B6A69686766656463626160B3
:1005D0005F5E5D5C5B5A595858575655545352519B
:1005E00050504F4E4D4C4B4A4A4948474646454469
:1005F00043424241403F3E3E3D3C3B3B3A39383826
:1006000037363535343332323130302F2E2E2D2CD3
:100610002B2B2A2929282727262525242323222175
:100620002120201F1E1E1D1C1C1B1B1A1919181807
:10063000171616151514131312121111100F0F0E91
:100640000E0D0D0C0C0B0A0A09090808070706060F
:1006500005050404030302020100000000524300E8
:100660000048430000BE42000020C100000000001E
:1006700000DCC253657474696E67732053746F72C3
:10068000656400290A002062797465733B206372F7
:1006900063200053657474696E67732053746F72BE
:1006A000656420280048617264636F646564204457
:1006B000656661756C742053657474696E67732028
:1006C0004C6F616465640020286D6D2900203B201B
:1006D0004C6576656C696E67200020204D343230A1
:1006E0002053004D65736820426564204C65766533
:1006F0006C696E67002046002042002048002020E0
:100700004D3134352053004D6174657269616C2040
:1007100068656174757020706172616D6574657271
:1007200073002020473239205334205A00204A00D9
:10073000202047323920533320490020204D3134C6
:10074000392043203B20556E69747320696E204325
:10075000656C736975730A0054656D7065726174B8
:1007600075726520556E6974730020204732312000
:100770003B004C696E65617220556E69747300456B
:100780004550524F4D206461746173697A652065EC
:1007900072726F722E0A00290A00206279746573E2
:1007A0003B2063726320002073746F726564207352
:1007B000657474696E6773207265747269657665B5
:1007C00064202800202863616C63756C6174656423
:1007D00029210A0020213D2000454550524F4D203F
:1007E000435243206D69736D61746368202D202826
:1007F00073746F7265642920002053697A653A200A
:1008000000496E6465783A20000000964300009627
:100810004300002042000034429A99A0429A99A0D5
:1008200042000048430080B84328230000282300EA
:100830000064000000D0070000204D61726C696EFA
:100840003D563836290A00454550524F4D207665B1
:100850007273696F6E206D69736D617463682028AF
:10086000454550524F4D3D0024F4D43050C38E20A6
:10087000C2A24017828B7011127A910D816CD90A35
:10088000A861E108C7586607615143061E4B5D0524
:10089000C145A7041A411104093D98037139310378
:1008A0004036DB0265339102D4305402802E1D02A3
:1008B000632CEE01752AC501B028A0011027810123
:1008C0008F2564012B244B01E0223401AC211F0150
:1008D0008D200D01801FFC00841EED00971DDF00A0
:1008E000B81CD200E61BC600201BBC00641AB20074
:1008F000B219A8000A19A0006A189900D11791002E
:1009000040178B00B516840031167E00B3157900B0
:100910003A157300C7146F0058146A00EE1366008E
:100920008813630025135E00C7125B006C1257002A
:1009300015125400C111510070114F0021114B00CC
:10094000D61049008D1047004610440002104200A6
:10095000C00F4000800F3E00420F3C00060F3B00DE
:10096000CB0E3800930E37005C0E3500270E340096
:10097000F30D3200C10D3100900D3000600D2E00DE
:10098000320D2D00050D2C00D90C2B00AE0C2900CA
:10099000850C29005C0C2700350C27000E0C260066
:1009A000E80B2400C40B2400A00B23007D0B2300C4
:1009B0005A0B2100390B2100180B2000F80A1F00E8
:1009C000D90A1E00BB0A1E009D0A1D00800A1D00D8
:1009D000630A1C00470A1B002C0A1B00110A1A009C
:1009E000F7091A00DD091900C4091900AB0919003B
:1009F000920917007B091800630917004C091600BB
:100A000036091600200916000A091500F508150018
:100A1000E0081400CC081400B8081400A40814005E
:100A2000900813007D0812006B081300580812008C
:100A300046081200340811002308110012081100A2
:100A400001081100F0071000E0071000D0071000A7
:100A5000C0071000B0070F00A107100091070E009B
:100A600083070F0074070F0065070E0057070E007D
:100A700049070E003B070D002E070E0020070D0052
:100A800013070D0006070D00F9060C00ED060D001A
:100A9000E0060C00D4060C00C8060C00BC060C00D6
:100AA000B0060C00A4060B0099060C008D060B0086
:100AB00082060B0077060B006C060B0061060A002D
:100AC00057060B004C060A0042060A0038060A00C8
:100AD0002E060A0024060A001A060A00100609005B
:100AE00007060A00FD050900F4050900EB050900E9
:100AF000E2050900D9050900D0050900C70509006C
:100B0000BE050900B5050800AD050800A5050900EA
:100B10009C050800940508008C0508008405080061
:100B20007C050800740508006C05070065050800D1
:100B30005D050700560508004E050700470507003C
:100B40004005080038050700310507002A050700A1
:100B5000230507001C050600160507000F05070002
:100B60000805060002050700FB040600F50407005F
:100B7000EE040600E8040600E2040700DB040600B9
:100B8000D5040600CF040600C9040600C30406000D
:100B9000BD040600B7040600B1040500AC0406005D
:100BA000A6040600A00405009B04060095040500A9
:100BB000900406008A0405008504050080040600F0
:100BC0007A04050075040500700405006B04050037
:100BD00066040500610405005C0405005704050077
:100BE000520405004D0405004804050043040500B7
:100BF0003E0404003A0405003504050030040400F6
:100C00002C04050027040400230405001E0404002E
:100C10001A04040016040500110404000D04040065
:100C2000090405000404040000040400FC0304009B
:100C3000F8030400F4030400F0030400EC030400D0
:100C4000E8030400E4030400E0030400DC03040000
:100C5000D8030400D4030400D0030400CC03040030
:100C6000C8030300C503030024F404D9201BC40CEB
:100C70005C0E9804C4095F0265077101F405F90070
:100C8000FB04B30048048700C10369005803550002
:100C900003034500BE023A008402310053022A00D9
:100CA0002902250004022000E4011C00C8011900EB
:100CB000AF011700980114008401130071011000A6
:100CC0006101100051010E0043010D0036010B00BF
:100CD0002B010B0020010B00150109000C0109007C
:100CE00003010800FB000800F3000800EB00070008
:100CF000E4000600DE000600D8000600D200060070
:100D0000CC000500C7000500C2000500BD000400BE
:100D1000B9000400B5000400B1000400AD000400F7
:100D2000A9000400A5000300A20003009F00040026
:100D30009B0003009800030095000200930003004D
:100D4000900003008D0002008B0003008800020069
:100D50008600020084000300810002007F00020080
:100D60007D0002007B000200790002007700010094
:100D7000760002007400020072000100710002009F
:100D80006F0002006D0001006C0002006A000100AB
:100D900069000200670001006600010065000100B3
:100DA00064000200620001006100010060000100B7
:100DB0005F0002005D0001005C0001005B000100BB
:100DC0005A000100590001005800010057000100BD
:100DD00056000100550001005400010053000000BE
:100DE00053000100520001005100010050000100B9
:100DF0004F0001004E0000004E0001004D000100B8
:100E00004C0001004B0000004B0001004A000100B3
:100E100049000100480000004800010047000100AF
:100E200046000000460001004500000045000100AA
:100E300044000100430000004300010042000000A4
:100E4000420001004100000041000100400001009B
:100E50003F0000003F0001003E0000003E00010096
:100E60003D0000003D0001003C0000003C0000008F
:100E70003C0001003B0000003B0001003A00000084
:100E80003A0001003900000039000100380000007C
:100E90003800000038000100370000003700010072
:100EA000360000003600000036000100350000006A
:100EB000350000003500010034000000340000005F
:100EC0003400010033000000330000003300010053
:100ED000320000003200000032000100310000004A
:100EE000310000003100010030000000300000003F
:100EF000300001002F0000002F0000002F00000034
:100F00002F0001002E0000002E0000002E00010026
:100F10002D0000002D0000002D0000002D0001001C
:100F20002C0000002C0000002C0000002C00010010
:100F30002B0000002B0000002B0000002B00010004
:100F40002A0000002A0000002A0000002A000100F8
:100F500029000000290000002900000029000000ED
:100F600029000100280000002800000028000000DF
:100F700028000000280001002700000027000000D2
:100F800027000000270000002700010026000000C5
:100F900026000000260000002600000026000100B8
:100FA00025000000250000002500000025000000AD
:100FB000250000002500010024000000240000009E
:100FC0002400000024000000240001002300000091
:100FD0002300000023000000230000002300000085
:100FE0002300000023000100220000002200000076
:100FF0002200000022000000220000002200010068
:10100000210000002100000021000000210000005C
:10101000210000002100000021000100200000004C
:101020002000000020000000200000002000000040
:101030002000000020000000200001001F00000030
:101040001F0000001F0000001F0000001F00000024
:101050001F0000001F0001001E0000001E00000015
:101060001E0000001E000000393000003325000083
:1010700087190000B00F0000DB080000BD0400006D
:10108000740200003F01000020436F756E74205809
:101090003A00426564004531004500626564002CF9
:1010A0002073797374656D2073746F70706564213B
:1010B000204865617465725F49443A200045727248
:1010C0003A204D415854454D50004D415854454DDE
:1010D0005020747269676765726564004865617461
:1010E000696E67204661696C656400486561746972
:1010F0006E67206661696C6564004572723A204DC6
:10110000494E54454D50004D494E54454D50207464
:10111000726967676572656400544845524D414C79
:101120002052554E4157415900546865726D616CAB
:101130002052756E6177617900202F002042403A7D
:101140000020403A0020573A0020573A00496E7676
:10115000616C69642065787472756465720A007CDC
:101160003C3E5E2B3D3F2F5B5D3B2C2A225C0043C7
:10117000616E6E6F74206F70656E20737562646946
:101180007220004D6564696120496E697420466172
:10119000696C0053442063617264206F6B0A006FB6
:1011A00070656E526F6F74206661696C65640A00C9
:1011B000766F6C756D652E696E6974206661696CF9
:1011C00065640A004E6F20534420636172640A0014
:1011D0000A4D3234004D3233202573002E0A006F41
:1011E00070656E206661696C65642C2046696C656B
:1011F0003A200046696C652073656C6563746564AC
:101200000A002053697A653A200046696C65206FB0
:1012100070656E65643A2000454E44205355425235
:101220004F5554494E450A002220706F730022200A
:10123000706172656E743A2200535542524F555494
:10124000494E452043414C4C207461726765743AA5
:10125000220053756263616C6C204F766572666C18
:101260006F77004578636565646564206D617820FB
:10127000535542524F5554494E4520646570746829
:101280003A00554E4C4F41442046494C414D454E45
:1012900054004C4F41442046494C414D454E54006A
:1012A00046494C414D454E54204348414E47450028
:1012B00020204D323036205800486F6D65206F6613
:1012C00066736574004361703A0020204D323530FA
:1012D0002043004C434420436F6E7472617374006A
:1012E000436F6F6C696E672E2E2E0045312025539B
:1012F0000042656420436F6F6C696E672E2E2E006E
:101300004265642048656174696E672E2E2E002345
:10131000646566696E652044454641554C545F00DE
:1013200000626564004B6420004B6920004B702014
:10133000002066696E6973686564212050757420A9
:10134000746865206C617374204B702C204B69208D
:10135000616E64204B6420636F6E7374616E74738E
:101360002066726F6D2062656C6F7720696E746F96
:1013700020436F6E66696775726174696F6E2E685F
:101380000A00504944204175746F74756E650020E1
:101390006661696C6564212074696D656F75740A96
:1013A00000504944204175746F74756E6500206665
:1013B00061696C6564212054656D70657261747536
:1013C000726520746F6F20686967680A005049442D
:1013D000204175746F74756E6500504944204379DF
:1013E000636C65730025532025692F256900204B08
:1013F000643A2000204B693A2000204B703A2000CC
:1014000020436C617373696320504944200A0020B3
:101410004E6F206F76657273686F6F740A00205488
:10142000753A2000204B753A2000206D61783A20F3
:1014300000206D696E3A200020643A200020626925
:1014400061733A200048656174696E672E2E2E0024
:101450002073746172740A00504944204175746F9E
:1014600074756E6500206661696C65642120546541
:101470006D706572617475726520746F6F20686934
:1014800067680A00504944204175746F74756E6531
:1014900000504944204175746F74756E6500206674
:1014A00061696C65642120426164206865617465CE
:1014B000722069640A00504944204175746F747544
:1014C0006E65004572723A207574663820666F6EDC
:1014D00074206E6F7420696E697469616C697A65D5
:1014E000642E004572723A207574663820666F6EFD
:1014F00074206E6F7420696E697469616C697A65B5
:10150000642E004572723A207574663820666F6EDC
:1015100074206E6F7420696E697469616C697A6594
:10152000642E002568753A25303268750025303202
:1015300068753A2530326875002530326875272580
:101540003032687500256875642025303268753A38
:1015500025303268750042656400456E636C6F73B8
:1015600075726500202020202020200020202020CF
:1015700000657272001FE03FF03FF03FF01FE01F78
:10158000E03FF03FF03FF00FC0078003001FE02076
:1015900010201020101020102020102010303008B3
:1015A00040048003003FFFF038007030FC3020FC26
:1015B000102078102030102C00D02E31D02F7BD06E
:1015C0002F7BD02E31D02C00D0203010207810204E
:1015D000FC1030FC303800703FFFF03FFFF0380067
:1015E000703186302387102787902F87D02F03D024
:1015F0002030102078102078102030102F03D02FAA
:1016000087D02787902387103186303800703FFFBE
:10161000F01FFFF81FFFF804104002082002082006
:101620000410400820801041001041000820800470
:1016300010400000001FFFF81FFFF85072696E7421
:101640002041626F72746564004D323500506175DF
:1016500073696E672E2E2E004D3234004545505270
:101660004F4D2056657273696F6E204572726F72AE
:1016700000454550524F4D20496E646578204572B3
:10168000726F7200454550524F4D204352432045E2
:1016900072726F72003F0049676E6F72650052652B
:1016A00073657400496E697469616C697A65204577
:1016B0004550524F4D0045005A005859004C6F613B
:1016C00064206D6D00556E6C6F6164206D6D004619
:1016D000696C2E204469612E004520696E206D6D75
:1016E0005E330020082046616374002008204D61AD
:1016F00078002008204D696E004F6666004F6E002E
:101700004175746F74656D70004D696E205472611F
:1017100076656C205370656564004D696E20566572
:101720006C6F63697479004D617820402053706557
:101730006564004D6178204520416363656C004D10
:101740006178204020416363656C00547261766566
:101750006C20416363656C00526574726163742030
:10176000416363656C00416363656C004D61782083
:1017700040204A65726B00402073746570732F6D52
:101780006D00416476616E636564205365747469AD
:101790006E6773003F0043616E63656C00496E695C
:1017A00074004D34323800496E697469616C697A2D
:1017B0006520454550524F4D0046696C616D656E20
:1017C000740054656D706572617475726500447261
:1017D00069766520537472656E677468005374652A
:1017E00070732F6D6D004A65726B00416363656CA9
:1017F00065726174696F6E004D6178205370656524
:101800006420286D6D2F73290053657420486F6D17
:1018100065204F66667365747300436F6E66696713
:1018200075726174696F6E003F004E657874204375
:101830006F726E657200446F6E65004E657874005D
:101840004C6576656C696E6720446F6E6521004D4E
:101850006F7665205A004732395332004E657874EE
:1018600020506F696E74002569202F202575004770
:101870003239533100473239533200436C69636B5C
:1018800020746F20426567696E00486F6D696E67EE
:101890002058595A0053746F7265205365747469E7
:1018A0006E6773004C6F61642053657474696E6772
:1018B0007300426564205472616D6D696E67004209
:1018C0006564205A004661646520486569676874EC
:1018D000004F6666004F6E00426564204C65766579
:1018E0006C696E67004C6576656C20426564004DDE
:1018F0006F74696F6E00426564004E6F7A7A6C6532
:101900000046616E20537065656400436F6E6669C2
:101910006775726174696F6E00526573746F72657A
:101920002044656661756C7473004C6F616420536C
:10193000657474696E67730053746F7265205365C4
:101940007474696E6773004F6666004F6E00536F64
:10195000756E640050726568656174202420436F61
:101960006E66004C434420436F6E74726173740062
:10197000416476616E6365642053657474696E6753
:1019800073004D61696E004D37303220542564007C
:101990004D36303020423020542564004D373032EF
:1019A000203B2564004D37303120542564004368C6
:1019B000616E67652046696C616D656E740050727A
:1019C000656865617420437573746F6D005072654E
:1019D000686561742024004261636B004D363030CD
:1019E000423000436F6E74696E75650050757267A2
:1019F00065206D6F726500524553554D45204F501F
:101A000054494F4E533A005052494E54205041557C
:101A10005345440020204E6F7A7A6C653A2000507E
:101A200061726B696E672E2E2E000000576169741B
:101A300020666F720066696C616D656E7420636804
:101A4000616E676500746F20737461727400576112
:101A5000697420666F720066696C616D656E7420D2
:101A6000756E6C6F616400004E6F7A7A6C652068E9
:101A7000656174696E6700506C656173652077619C
:101A800069742E2E2E000050726573732062757477
:101A9000746F6E00746F2068656174206E6F7A7A5F
:101AA0006C650000496E736572742066696C616DC7
:101AB000656E7400616E6420707265737320627568
:101AC00074746F6E00746F20636F6E74696E7565E9
:101AD000005761697420666F720066696C616D659C
:101AE0006E74206C6F6164000050726573732042E5
:101AF0007574746F6E00746F20726573756D6520F8
:101B00007072696E7400005761697420666F72208C
:101B10007072696E7400746F20726573756D652ED6
:101B20002E2E00005761697420666F720066696C22
:101B3000616D656E742070757267650000313530B7
:101B40000035004245443A20507431303020556C05
:101B500074694D422035760052756E617761792047
:101B600057617463683A204F4E004D617820546588
:101B70006D7000323735004D696E2054656D700010
:101B8000350045313A20507431303020556C74693D
:101B90004D42203576005053550047656E65726999
:101BA000630050726F746F636F6C00312E300042AF
:101BB0006175640031313532303000556C74696DB7
:101BC000616B657220322E78004D657368204C651C
:101BD00076656C696E6700457874727564657273BA
:101BE0000031006D61726C696E66772E6F726700EE
:101BF000556C74696D616B657220322B0032303226
:101C0000332D30342D3136006275676669782D3298
:101C10002E302E78004D61726C696E0054686572CA
:101C20006D6973746F727300426F61726420496EE4
:101C3000666F005072696E74657220496E666F003F
:101C40004D61696E004F6666004F6E004C696768B3
:101C500074204272696768746E65737300436F6EB7
:101C600066696775726174696F6E004361736520A0
:101C70004C69676874004D61696E003F00426163A2
:101C80006B0053746F70003F004E4F005945530076
:101C90004E6F204D65646961005072696E742066F4
:101CA000726F6D204D65646961004368616E6765A0
:101CB000204D65646961004D3231004C696768747C
:101CC000730041626F7574205072696E74657200A2
:101CD0004368616E67652046696C616D656E74006E
:101CE000436F6E66696775726174696F6E005465E3
:101CF0006D7065726174757265004D6F74696F6E99
:101D0000005072656865617420437573746F6D006F
:101D1000526573756D65205072696E740054756EEE
:101D2000650053746F70205072696E740050617555
:101D30007365205072696E7400496E666F2053633C
:101D40007265656E003F0053746172742050726951
:101D50006E740043616E63656C005072696E74004E
:101D600043616E6E6F7420656E7465722073756268
:101D70006469723A200002202E2E004D61696E00C7
:101D8000000C0F00FE07022503BB017FFE08FE08C2
:101D9000FE05080806000040F0C8888898781005FD
:101DA0000808060000C0F88888888888F8050505B6
:101DB0000600012030F830200508080600002070D9
:101DC000F820202020E00509090600FF2070A8A8BF
:101DD000B888887020070505070001D86C366CD8D4
:101DE0000509090600FFF8A88888888888A8F805EA
:101DF0000A0A0600FE205050505088A8A888700398
:101E0000030306000340A040FFFFFFFFFFFFFFFFAB
:101E1000FFFFFFFFFFFFFFFFFFFFFFFFFFFF0000D0
:101E2000000605FF01070706020080808080800011
:101E300080030303060105A0A0A005060606000016
:101E400050F85050F8500509090600FF2070A8A06E
:101E50007028A87020050707060000C8C810204099
:101E6000989805070706000040A0A040A8906801C8
:101E700003030602058080800309090601FF204054
:101E8000408080804040200309090601FF804040D7
:101E900020202040408005070706000020A8702071
:101EA00070A8200505050600012020F82020020367
:101EB000030601FFC04080050101060003F802028D
:101EC00002060100C0C00507070600000810102028
:101ED000404080050707060000708898A8C88870F1
:101EE00003070706010040C040404040E0050707E7
:101EF000060000708808102040F80507070600005B
:101F0000F8081030088870050707060000103050E8
:101F100090F81010050707060000F880F008088800
:101F200070050707060000304080F08888700507BC
:101F300007060000F80810102020200507070600FB
:101F40000070888870888870050707060000708810
:101F50008878081060020505060100C0C000C0C0F6
:101F60000206060601FFC0C000C04080030505064A
:101F700001012040804020050303060002F800F81C
:101F80000305050601018040204080050707060083
:101F900000708810202000200507070600007088C8
:101FA000B8A8B88070050707060000708888F88810
:101FB0008888050707060000F04848704848F00583
:101FC0000707060000708880808088700507070674
:101FD0000000F04848484848F0050707060000F8A8
:101FE0008080F08080F8050707060000F88080F008
:101FF00080808005070706000070888080988870C0
:10200000050707060000888888F88888880307077E
:10201000060100E04040404040E0050707060000A0
:10202000381010101090600507070600008890A077
:10203000C0A090880507070600008080808080800F
:10204000F805070706000088D8A88888888805074B
:10205000070600008888C8A8988888050707060032
:102060000070888888888870050707060000F08857
:1020700088F080808005070706000070888888A89F
:102080009068050707060000F08888F0A090880592
:10209000070706000070888070088870050707062B
:1020A0000000F820202020202005070706000088D7
:1020B00088888888887005070706000088888888CF
:1020C00050502005070706000088888888A8A85077
:1020D00005070706000088885020508888050707F4
:1020E00006000088885020202020050707060000F1
:1020F000F80810204080F80309090601FFE08080FD
:102100008080808080E00507070600008040402036
:102110001010080309090601FFE0202020202020DC
:1021200020E0050303060005205088050101060094
:10213000FEF803030306010580402005050506009F
:102140000070087888780507070600008080F0880E
:102150008888F005050506000070808088700507F6
:1021600007060000080878888888780505050600B5
:10217000007088F08070050707060000304840E0D6
:102180004040400507070600FE7088888878087080
:102190000507070600008080F08888888803070705
:1021A0000601004000C0404040E00409090601FE6D
:1021B0001000301010101090600507070600008016
:1021C000808890E09088030707060100C0404040E7
:1021D0004040E0050505060000D0A8A8A8A8050510
:1021E00005060000B0C8888888050505060000704F
:1021F000888888700507070600FEF0888888F080C8
:10220000800507070600FE78888888780808050595
:1022100005060000B0C8808080050505060000782E
:10222000807008F00507070600002020F820202015
:1022300018050505060000888888986805050506C4
:10224000000088888850200505050600008888A8B9
:10225000A85005050506000088502050880507078E
:102260000600FE888888502040800505050600008D
:10227000F8102040F80309090601FF204040408083
:10228000404040200109090602FF80808080808054
:102290008080800309090601FF80404040204040C3
:1022A000408005030306000248A890FF434F4D4DB0
:1022B000554E49434154494F4E0044525952554E90
:1022C000004552524F525300494E464F0045434835
:1022D0004F0053544F505045442E20005072696EA9
:1022E0007465722073746F70706564206475652006
:1022F000746F206572726F72732E20466978207435
:102300006865206572726F7220616E6420757365F6
:10231000204D39393920746F20726573746172747D
:102320002E202854656D7065726174757265206920
:10233000732072657365742E205365742069742050
:1023400061667465722072657374617274696E6718
:10235000290A004E6F20436865636B73756D2077A3
:10236000697468206C696E65206E756D6265722C8B
:10237000204C617374204C696E653A20004E6F20CA
:10238000436865636B73756D2077697468206C6949
:102390006E65206E756D6265722C204C61737420C1
:1023A0004C696E653A2000636865636B73756D20D8
:1023B0006D69736D617463682C204C617374204C7B
:1023C000696E653A20004C696E65204E756D6265D8
:1023D00072206973206E6F74204C617374204C6995
:1023E0006E65204E756D6265722B312C204C6173C9
:1023F00074204C696E653A20004D313130005365D0
:102400007269616C20737461747573206D69736D8A
:10241000617463680A0053442072656164206572C8
:10242000726F720A00746F6F206D75636820696E39
:102430006163746976652074696D65202D2063750C
:102440007272656E7420636F6D6D616E643A200008
:102450002121204B494C4C206361757365642062D7
:10246000792000627573793A207061757365642014
:10247000666F7220696E7075740A00627573793ABE
:102480002070617573656420666F72207573657264
:102490000A00627573793A2070726F6365737369AD
:1024A0006E670A004D656469612052656D6F7665DF
:1024B00064004D6564696120496E7365727465647A
:1024C00000506C65617365205265736574005052ED
:1024D000494E5445522048414C5445440025533AF6
:1024E000202553004B494C4C45442E200050726926
:1024F0006E7465722068616C7465642E206B696C03
:102500006C28292063616C6C6564210A006563682E
:102510006F3A004572726F723A004F4646004F4E56
:10252000000A4D6561737572656420706F696E7421
:10253000733A0A00337833206D6573682E205A2071
:102540006F66667365743A2000486F74656E642028
:10255000746F6F20636F6C640A00473236204361EA
:102560006E63656C65640047323620486561746946
:102570006E67204E6F7A7A6C650047323620486568
:102580006174696E67204265640057616974696EA1
:102590006720666F72206865617475702E0A004648
:1025A00069786564204C656E677468205072696D47
:1025B0006500446F6E65205072696D696E67004DED
:1025C000616E75616C207072696D696E672E2E2E5A
:1025D000004C656176696E6720473236003F537064
:1025E0006563696669656420582C5920636F6F7252
:1025F00064696E617465206F7574206F6620626F08
:10260000756E64732E0A003F2852296570656174E7
:102610002076616C7565206E6F7420706C617573C7
:1026200069626C653B206D7573742062652061740E
:10263000206C6561737420312E0A003F537065630E
:102640006966696564206E6F7A7A6C652074656D61
:102650007065726174757265206E6F7420706C6144
:10266000757369626C652E0A003F53706563696615
:102670006965642066696C616D656E742073697A42
:1026800065206E6F7420706C61757369626C652E65
:102690000A003F53706563696669656420707269FA
:1026A0006D65206C656E677468206E6F7420706C49
:1026B00061757369626C652E0A003F5370656369CA
:1026C00066696564206E6F7A7A6C652073697A65D5
:1026D000206E6F7420706C61757369626C652E0A70
:1026E000003F52657472616374696F6E204D756C42
:1026F0007469706C696572206D75737420626520F1
:102700007370656369666965642E0A003F5370657E
:102710006369666965642052657472616374696F88
:102720006E204D756C7469706C696572206E6F7483
:1027300020706C61757369626C652E0A003F53707E
:1027400065636966696564206C6179657220686596
:1027500069676874206E6F7420706C61757369624C
:102760006C652E0A0043292E0A003F537065636989
:1027700066696564206265642074656D7065726168
:1027800074757265206E6F7420706C617573696208
:102790006C65202834302D00473236207374617206
:1027A00074696E672E2E2E0A00206E6F7420656E7F
:1027B00074657265642E0A0050726F62696E6720DC
:1027C000506F696E740025532025692F25690020FC
:1027D0006F6620004D424C2047323920706F696E81
:1027E000742000290A004A206F7574206F662072D9
:1027F000616E67652028302D00290A0049206F7519
:1028000074206F662072616E67652028302D004746
:1028100032384C30004D6573682070726F62696E9B
:102820006720646F6E65004D6573682070726F621B
:10283000696E6720646F6E652E0A0053746172744E
:10284000206D6573682070726F62696E67207769AA
:10285000746820224732392053312220666972730E
:10286000742E0A004732395332004732384C300A4E
:10287000473239533200686173206E6F206461748F
:10288000612E0A004D65736820426564204C6576B0
:10289000656C696E67200053206F7574206F662029
:1028A00072616E67652028302D35292E0A0020447C
:1028B0000020204D323030205300202844697361BD
:1028C000626C6564293A0046696C616D656E7420BE
:1028D00073657474696E67730020204D3230312047
:1028E00058004D617820416363656C65726174695D
:1028F0006F6E2028756E6974732F73322900202043
:102900004D3230332058004D617820666565647221
:10291000617465732028756E6974732F73290020A4
:10292000520020204D323034205000416363656CEA
:1029300065726174696F6E2028756E6974732F7388
:1029400032292028503C7072696E742D6163636572
:102950006C3E20523C726574726163742D616363D6
:10296000656C3E20543C74726176656C2D616363C6
:10297000656C3E290020540020530020204D323049
:1029800035204200416476616E6365642028423CD4
:102990006D696E5F7365676D656E745F74696D6593
:1029A0005F75733E20533C6D696E5F66656564724A
:1029B0006174653E20543C6D696E5F74726176652A
:1029C0006C5F66656564726174653E20583C6D613C
:1029D000785F6A65726B3E20593C6D61785F6A650D
:1029E000726B3E205A3C6D61785F6A65726B3E2067
:1029F000453C6D61785F6A65726B3E29002044003A
:102A000020490020204D333031205000486F74653C
:102A10006E64205049440020440020490020204D8D
:102A20003330342050004265642050494400202057
:102A30004D39303720580053746570706572206DC1
:102A40006F746F722063757272656E747300496E75
:102A5000736572742066696C616D656E7420616E59
:102A60006420707265737320627574746F6E0A00EF
:102A7000507265737320627574746F6E20746F206A
:102A800068656174206E6F7A7A6C650A00496E73AE
:102A90006572742066696C616D656E7420616E6428
:102AA00020707265737320627574746F6E0A0020F3
:102AB0003B0020550020204D363033204C00466925
:102AC0006C616D656E74206C6F61642F756E6C6FD8
:102AD0006164003B200020496E76616C696420656A
:102AE00078747275646572200047322F4733206214
:102AF000616420706172616D65746572730A005360
:102B00006C6565702E2E2E004D65736820706F69A0
:102B10006E74206F7574206F662072616E67650A2F
:102B200000436C69636B20746F20526573756D652B
:102B30002E2E2E004E6F204D6F76652E00456E6452
:102B40002066696C65206C6973740A004265676968
:102B50006E2066696C65206C6973740A004E6F2084
:102B60006D656469610A00286E6F2066696C65296D
:102B70000043757272656E742066696C653A200058
:102B80005344207072696E74696E6720627974654F
:102B900020004E6F74205344207072696E74696E09
:102BA000670A002E0A0044656C6574696F6E2066C2
:102BB00061696C65642C2046696C653A2000466941
:102BC0006C652064656C657465643A002569730002
:102BD00025696D20256973002569682025696D20A8
:102BE00025697300256964202569682025696D20A1
:102BF0002569730025697920256964202569682085
:102C000025696D20256973005072696E742074699E
:102C10006D653A20006F6B006F666600CD22C8229A
:102C2000C122BA22AC2244454255473A004D3131C7
:102C3000322053687574646F776E004D31313320E4
:102C40005300556C74696D616B657220322B204F97
:102C500046462E00434F4E4649475F4558504F5217
:102C600054004D4541545041434B00434F4F4C4558
:102C7000525F54454D5045524154555245004348CA
:102C8000414D4245525F54454D5045524154555275
:102C90004500424142595354455050494E47004126
:102CA000524353004D4F54494F4E5F4D4F4445538F
:102CB00000544845524D414C5F50524F5445435487
:102CC000494F4E00455854454E4445445F4D3230BF
:102CD00000435553544F4D5F4649524D574152455D
:102CE0005F55504C4F4144004C464E5F575249543B
:102CF00045004C4F4E475F46494C454E414D4500BF
:102D00004155544F5245504F52545F53445F5354B2
:102D1000415455530053445F57524954450052455E
:102D200050454154004D554C54495F564F4C554DFC
:102D300045005344434152440050524F4D50545F5C
:102D4000535550504F525400484F53545F414354D1
:102D5000494F4E5F434F4D4D414E445300454D4505
:102D60005247454E43595F504152534552004341EB
:102D700053455F4C494748545F4252494748544E77
:102D800045535300544F47474C455F4C49474854BF
:102D90005300534F4654574152455F504F57455289
:102DA000004255494C445F50455243454E54004CF7
:102DB0004556454C494E475F44415441005A5F5087
:102DC000524F42450052554E4F5554004155544FB5
:102DD0004C4556454C005052494E545F4A4F4200B4
:102DE00050524F4752455353004155544F5245504E
:102DF0004F52545F54454D50004155544F52455029
:102E00004F52545F504F5300564F4C554D455452FE
:102E1000494300454550524F4D0042494E41525999
:102E20005F46494C455F5452414E5346455200530C
:102E3000455249414C5F584F4E5F584F46460046F9
:102E400049524D574152455F4E414D453A4D617291
:102E50006C696E206275676669782D322E302E7827
:102E600020284A756C20203520323032342031330E
:102E70003A34353A30312920534F555243455F4358
:102E80004F44455F55524C3A6769746875622E63CA
:102E90006F6D2F556C74696D616B65722F4D61722A
:102EA0006C696E2050524F544F434F4C5F56455201
:102EB00053494F4E3A312E30204D414348494E45FB
:102EC0005F545950453A556C74696D616B65722059
:102ED000322B2045585452554445525F434F554E6E
:102EE000543A3120555549443A636564653261323C
:102EF000662D343161322D343734382D3962313218
:102F00002D6335356336326633363766660A002FF1
:102F10002F004D31343520533C696E6465783E2076
:102F20006F7574206F662072616E67652028302D82
:102F300031290A005741524E494E4721204C6F77A4
:102F4000205A204A65726B206D6179206C6561643E
:102F500020746F20756E77616E7465642070617582
:102F60007365732E0A0020580020204D61783A20A6
:102F700000200020204D696E3A2000203B200020D8
:102F8000204D323131205300536F667420656E64DA
:102F900073746F70730046523A0020466C6F773A34
:102FA000200064697300656E0043290A0061626C49
:102FB000656420286D696E2074656D702000436F14
:102FC0006C64206578747275646573206172652025
:102FD000004F46460A004661646520486569676897
:102FE000742000426564204C6576656C696E6720CC
:102FF000004661696C656420746F20656E61626C67
:103000006520426564204C6576656C696E670A00D0
:103010004D65736820426564204C6576656C20645C
:103020006174613A0A00496E76616C6964206D656D
:1030300073682E0A004D65736820706F696E742086
:103040006F7574206F662072616E67650A004D347B
:10305000323120696E636F727265637420706172C1
:10306000616D657465722075736167650A004F66EE
:103070006673657473204170706C69656400457295
:10308000723A20546F6F206661722100546F6F2076
:103090006661722066726F6D207265666572656E1C
:1030A000636520706F696E740A00454550524F4D3C
:1030B000204F4B0A004F46460A0043617365206C5F
:1030C000696768743A20004D383400446F6E65209B
:1030D0007072696E74696E672066696C650A004D6E
:1030E0003737004D33310057726974696E67207449
:1030F0006F2066696C653A200066726573680064CB
:103100006F696E67002066696C653A20004E6F77C4
:1031100020002F6175746F25632E6700FFE0FFD1DB
:10312000AFFF32FFD0FFFEFFE0FFD1AEFFD0FFFECA
:10313000FFE0FFD11000FFFEFFD0FFE0FFC1FFD195
:10314000FD12AED5A0A83F3D0040A1C8DA1281DF34
:10315000D982DB34A4A6FFBFFF32AFFF32FFD0FF1E
:10316000FE026D61726C696E66772E6F7267006227
:1031700075676669782D322E302E78001FFFFFFFAD
:10318000FFFFFF600000000001FF400000000000A2
:10319000FF8000000000007F83CF00000C303F87DD
:1031A000FF80000C301F867980000C000F8C30C728
:1031B000838C30E78C30CFC7CC31F38C30DCECEC37
:1031C00033B98C30D86C6C33198C30D06C0C33190B
:1031D0008C30D86C0C33198C30DC6C0E3B198C3075
:1031E000CF7C079F198C30C77C038F1940000000EB
:1031F000000002600000000000061FFFFFFFFFFF4D
:10320000F800000000300E0100C00E0A00500F143C
:1032100000D00F1E0060102800E010320070113C3A
:1032200000F01146007012500000135A0080136421
:103230000000146E00901478001015820090158C18
:1032400000101696009016A0001017AA009017B450
:10325000001018BE009018C8001019D2009019DC98
:1032600000101AE600801AF000001BFA00801B0410
:1032700001F01B0E01701C1801F01C2201601D2CB6
:1032800001E01D3601501E4001D01E4A01401F546E
:1032900001B01F5E0130206801A020720110217C66
:1032A0000190218601002290016026F401902A58A5
:1032B00002802EBC0250322003E03584035039E8EE
:1032C00003803C4C042020506C616E6E6572427528
:1032D0006666657242797465733A200020467265AD
:1032E00065204D656D6F72793A200020436F6D70D7
:1032F000696C65643A204A756C2020352032303282
:10330000340A00204C6173742055706461746564E4
:103310003A20323032332D30342D3136207C20416A
:103320007574686F723A20284E6F6168204765692E
:10333000737465722C20556C74696D616B657232A3
:103340002B290A004D61726C696E2062756766698F
:10335000782D322E302E780A0020536F66747761F4
:1033600072652052657365740A0020576174636842
:10337000646F672052657365740A002042726F772C
:103380006E206F75742052657365740A002045784D
:103390007465726E616C2052657365740A00506FBB
:1033A00077657255700A0073746172740A0047324F
:1033B000385A204732385859004D31303031006F7B
:1033C0006B006572726F722077726974696E672024
:1033D000746F2066696C650A00446F6E65207361C6
:1033E00076696E672066696C652E0A004D32390079
:1033F000456E6473746F7073002553202563202518
:103400006320256320256300205A3A0020593A00A2
:1034100020583A00656E6473746F70732068697425
:103420003A200000000A0B02090C0D0E08070304E5
:10343000010000000000000000000000000000008B
:10344000000000000000000000000000000000126A
:10345000111000000000000000000000000000004B
:10346000000000000000000000000000000000005C
:103470000000000000000000004D6F766520246D04
:103480006D00302E303235004D6F766520302E3194
:103490006D6D004D6F766520316D6D004D6F7665F9
:1034A0002031306D6D004D6F766520417869730075
:1034B0004D6F7665202A004D6F7665204000486F7D
:1034C0006D696E67204661696C656400FFFF0122CB
:1034D0000A00556E6B6E6F776E20636F6D6D616E57
:1034E000643A202200204500205A00205900202064
:1034F0004D39322058005374657073207065722006
:10350000756E6974004572726F72207772697469A2
:103510006E6720746F20454550524F4D210A0020A0
:10352000746F6F206C6F6E67206578747275736945
:103530006F6E2070726576656E7465640A00206334
:103540006F6C6420657874727573696F6E20707229
:103550006576656E7465640A00486F6D6520257335
:10356000257325732046697273740020453A002044
:103570005A3A0020593A00583A00556C74696D6106
:103580006B657220322B2052656164792E00507277
:10359000696E74696E672E2E2E005072696E7420EB
:1035A000506175736564006F6B0A00526573656ED8
:1035B000643A200000002200250028002B002E0085
:1035C0003100340002010000050108010B01000078
:1035D0002100240027002A002D00300033000101C3
:1035E0000000040107010A01050505050705080893
:1035F0000808020202020A0A08080404040401017D
:103600000101010101010303030303030303040791
:1036100007070C0C0C0C0C0C0C0C02020202060628
:103620000606060606060B0B0B0B0B0B0B0B070710
:103630000A0A0A0A0A0A0505050404040808010220
:1036400010202008081020401020408002010201B4
:10365000080402010102040810204080804020106C
:1036600008040201800402018040201008040201C5
:10367000080402010102040810204080010204082D
:103680001020408010080408801020400440801062
:1036900020400480B6009A0011241FBECFEFD1E273
:1036A000DEBFCDBF00E00CBF84B78093C01614BE50
:1036B0000FB6F894A89580916000886180936000AF
:1036C000109260000FBE13E0A0E0B2E0E8E4F0E783
:1036D00002E00BBF02C007900D92A83EB107D9F7D8
:1036E00026E1A8EEB3E001C01D92A03CB207E1F7CD
:1036F0001BE1CBE4DBE100E006C021970109802F4C
:10370000FE010F94D134CA34D10780E00807A9F72D
:103710000F94B7240D9413380C9400000F931F934B
:10372000CF93DF93CDB7DEB760970FB6F894DEBFC7
:103730000FBECDBF8C01DC01ED91FC910280F381C5
:10374000E02DBE016F5F7F4F1995882309F464C097
:103750008981807CC9F56F81637070E0762F662760
:10376000770F770F8885B4E08B9FC0011124682BF9
:10377000792B89858295869586958370682B6F5FF6
:103780007F4F90E080E02A852370220F3B8537FB36
:10379000332730F9232B3E813F70230F3327331F0C
:1037A0002750310904C0660F771F881F991F2A957B
:1037B000D2F760960FB6F894DEBF0FBECDBFDF9193
:1037C000CF911F910F910895803419F56885669502
:1037D000669570E090E080E0CB01772766272A8528
:1037E000622B098510E0102F0027012E000C220B00
:1037F000330B602B712B822B932B6F5F7F4F8F4F7F
:103800009F4F4AE0660F771F881F991F4A95D1F78F
:10381000D0CF8BE0F801848360E070E0CB01C9CFAA
:103820000895FC01828108952F923F924F925F92FA
:103830006F927F928F929F92AF92BF92CF92DF92C0
:10384000EF92FF920F931F93CF93DF9300D000D09E
:103850001F921F92CDB7DEB798878F83DC010D9042
:10386000BC91A02DBA83A98318966D917C9119976C
:103870006115710501F114968D919D910D90BC918A
:10388000A02D8B839C83AD83BE83072E000C880BF9
:10389000990B0F9460302B813C814D815E810F9498
:1038A000DF344B015C0120E030E040E251EC0F944A
:1038B0005A3087FF08C081E0EF81F885868BC12CE4
:1038C000D12C7601DEC020E030E040E251E4C501B9
:1038D000B4010F940637181664F481E0AF81B885FF
:1038E00056968C93C12CD12C8FE7E82E83E4F82ECA
:1038F000C8C0EF81F8858689882349F0168A168624
:103900001786108A118A1286138614861586A98155
:10391000BA811F964D905D906D907C905297EF818B
:10392000F8852685378540895189C501B4010F94F2
:10393000E0341B016C0120E030E0A9010F945A3003
:1039400087FDBAC0A301920160E070E08FE793E4C5
:103950000F94BC357B018C019B01AC01B101C60108
:103960000F940637181614F071018601C701D801AB
:10397000EF81F88586879787A08BB18BA981BA8163
:103980001B962D913D914D915C911E97C501B401FF
:103990000F94BF304B015C01EF81F88582829382E6
:1039A000A482B5829701A801C301B2010F94BF3070
:1039B0002B013C01AF81B88516964D925D926D92B8
:1039C0007C9219971A96CD90DD90ED90FC901D9702
:1039D0002B813C814D815E8152966D917D918D91BF
:1039E0009C9155970F94DF34E981FA8123893489BA
:1039F000458956890F94BF30A70196010F94DF3493
:103A000020ED3CEC4CE45DE30F94BF30A701960140
:103A10000F94E0346B017C01AF81B8851A96CD928A
:103A2000DD92ED92FC921D978B819C81AD81BE81D0
:103A3000EF81F885828B938BA48BB58BA3019201C8
:103A4000C501B4010F94E034A70196010F94E0344E
:103A500020E030E0A9010F94E0346B017C0120E00C
:103A600030E0A9010F945A3087FD29CF20E030E0E3
:103A70004FE753E4C701B6010F94063718160CF44C
:103A800031CFC701B60128960FB6F894DEBF0FBE3E
:103A9000CDBFDF91CF911F910F91FF90EF90DF90FD
:103AA000CF90BF90AF909F908F907F906F905F90DE
:103AB0004F903F902F900895E12CF12C00E010E002
:103AC00055CFCF93DF93C0917B04D0917C0481E0EC
:103AD000CE31D105E4F020E030E040E05FE36091DA
:103AE0007704709178048091790490917A040F940E
:103AF000E0340F9424366C1B7D0B77FF03C0719567
:103B00006195710981E0633071050CF080E0DF910F
:103B1000CF910895FC0190E1A2E9B5E001900D92EA
:103B20009A95E1F70895EF92FF920F931F93E09219
:103B30004904F0924A0400934B0410934C046093A0
:103B40004D0470934E0480934F049FEFFF27621B38
:103B5000730B840B30F4809570956195790B890B0C
:103B6000992790934607A6E06A9F00923A07512D45
:103B7000EE277A9F500DE11D8A9FE00D50933B0781
:103B8000E0933C07AFE06A9F00923E07512DEE277D
:103B90007A9F500DE11D8A9FE00D50933F07E093FF
:103BA0004007AAE06A9F00924207512DEE277A9FB4
:103BB000500DE11D8A9FE00D50934307E0934407A9
:103BC0001F910F91FF90EF90089580E008959F92CC
:103BD000AF92BF92CF92DF92EF92FF920F931F931B
:103BE000CF93DF9300D01F921F92CDB7DEB7EBE5E6
:103BF000F5E00027BB27462F572FA82FAA2341F413
:103C0000A52F542FB85FAA2319F4A52F5527B85F05
:103C1000A03138F45295A295452F4F70507FA42BB8
:103C2000BC5FA03428F4550FAA1F550FAA1FBE5F12
:103C3000A03818F4550FAA1FB395550FAA1FEA0F05
:103C4000F01F449151E0AA27B85079F1C0F0B0FFBD
:103C500002C0440F551FB1FF04C0440F551F440F4D
:103C6000551FB2FF06C052954295142F1F70407F1A
:103C7000512BB3FF1AC0A52F542F442716C0B1955E
:103C8000B0FF02C055954795B1FF04C055954795C3
:103C900055954795B2FF05C05295407F4295452BFB
:103CA0005F70B3FF02C0452F5527DD24CC24BB2411
:103CB000B2E0649FD018C108B00AB00B749FC0185E
:103CC000B108B00B849FB018B109659FC018B10846
:103CD000B00B759FB018B109859FB0196A9FB018D5
:103CE000B1097A9FB0194D9DA12C992433279927AA
:103CF00022275D9DA00C911C301F901F201FAD9DA1
:103D0000900C311D901F201F4C9DA00C911C301F4A
:103D1000901F201F5C9D900C311D901F201FAC9D9B
:103D2000300D911D201F4B9D900C311D901F201FA9
:103D30005B9D300D911D201FAB9D900D211D4B9F54
:103D4000300D911D201F5B9F900D211DAB9F200DFD
:103D5000B1E0BB24CC24DD24639FD018C108B00A95
:103D6000B00B739FC018B108B00B839FB018B10996
:103D7000699FC018B108B00B799FB018B109899F2D
:103D8000B019629FB018B109729FB019D61AC70A4C
:103D9000B80A20F0B1E03B0F901F201F1124792FAB
:103DA000632F90E0822F0F900F900F900F900F9045
:103DB000DF91CF911F910F91FF90EF90DF90CF9007
:103DC000BF90AF909F900895CF92DF92EF92FF92B5
:103DD00080911F04882309F457C0C0901B04D09021
:103DE0001C04E0901D04F0901E0420E030E0A901C6
:103DF000C701B6010F945A30882309F445C020E06A
:103E000030E040E05FE3C701B6010F94BF309B0193
:103E1000AC010F94BF302BED3FE049E450E40F9428
:103E2000BF309B01AC0160E070E080E89FE30F943D
:103E3000BC356B017C01C0920204D0920304E09275
:103E40000404F09205046091040270910502072EAB
:103E5000000C880B990B0F9460302AE037ED43E299
:103E60005CE30F94BF30A70196010F94BF306093BD
:103E70006F02709370028093710290937202FF90B0
:103E8000EF90DF90CF900895C12CD12C80E8E82EE0
:103E90008FE3F82ED0CF6091040270910502072EB7
:103EA000000C880B990B0F9460302AE037ED43E249
:103EB0005CE30F94BF3020910204309103044091E1
:103EC0000404509105040F94BF3060936F02709307
:103ED00070028093710290937202089580912F086E
:103EE000811104C08091E90380937B080895CF93EA
:103EF000DF93C0917B04D0917C04209729F16091DD
:103F00007704709178048091790490917A040F94E9
:103F100024366E5F7F4F24976C177D07ACF4709347
:103F2000E7056093E6050F945013605C73468F4F6E
:103F30009F4F6093E8057093E9058093EA0590939D
:103F4000EB05DF91CF9108951092E8051092E905F5
:103F50001092EA051092EB05F4CFCF93DF93EC01BA
:103F60008D810E9468D160E08B81DF91CF910D94AB
:103F70007D11DF92EF92FF920F931F93CF93DF9308
:103F80008C01C62FD22FF32EE42ED52EE6DF0F9410
:103F90002D198C2F80640E945CD18D2D0E945CD1E4
:103FA0008E2D0E945CD18F2D0E945CD18D2F0E949E
:103FB0005CD187E8C11101C085E90E945CD1CC3099
:103FC00011F40E9461D1C0E00E9461D1F8018683A2
:103FD00087FF04C0CF3F11F0CF5FF6CFDF91CF91C5
:103FE0001F910F91FF90EF90DF90089561E0FC0129
:103FF00083810F947D118FEF0C945CD10F931F93ED
:10400000CF938C01AADF0F942D19C82F882369F054
:104010008DEF0E945CD10F942D19C82FC801E6DFE7
:104020008C2FCF911F910F91089582E1F801848325
:10403000F5CF8F929F92AF92BF92CF92DF92EF9285
:10404000FF920F931F93CF93DF93EC016A017B01E3
:10405000590120E030E0A90167E38BDFA501980159
:1040600067E1CE0186DF811125C08F81833039F071
:1040700089E0CC0CDD1CEE1CFF1C8A95D1F7A70152
:10408000960169E1CE0175DF11E0882319F010E097
:1040900087E08C83CE01AADF812FDF91CF911F9122
:1040A0000F91FF90EF90DF90CF90BF90AF909F90D7
:1040B0008F90089589E08C8310E0ECCFCF93DF934D
:1040C000EC016EBDFA01CA019E5F0DB407FEFDCF83
:1040D00020812EBD0DB407FEFDCF21812EBD32966D
:1040E000E817F90791F70DB407FEFDCF8FEF0E9497
:1040F0005CD18FEF0E945CD10E9461D18E838F7161
:10410000853041F083E18C83CE0170DF80E0DF9168
:10411000CF91089581E0FBCF0F931F93CF93DF934F
:10412000EC018B011ADF0F942D1981110BC085E171
:104130008C8310E0CE015ADF812FDF91CF911F9148
:104140000F910895A8016CEFCE01B8DF182F8823D6
:1041500071F3F0CF0F931F93CF93DF93EC0189019D
:104160008F81833039F089E0440F551F661F771F18
:104170008A95D1F79A01AB0168E1CE01FADE81118F
:1041800027C0A8016EEFCE0199DF182F8823A9F070
:104190000F942D19182F8823C1F020E030E0A901D9
:1041A0006DE0CE01E6DE882321F086E18C8310E00D
:1041B00004C00E9461D18111F8CFCE0117DF812F99
:1041C000DF91CF911F910F91089587E18C83F5CFF7
:1041D00086E0ECCF1F93CF93DF93EC01BEDE20E0AF
:1041E00030E0A9016CE0CE01C4DE11E0882319F0B3
:1041F00010E083E08C83CE01F9DE812FDF91CF9137
:104200001F9108951F93CF93DF93EC018F8183302B
:1042100039F089E0440F551F661F771F8A95D1F743
:104220009A01AB0162E1CE01A4DE11E0882319F00E
:1042300010E085E08C83CE01D9DE812FDF91CF9114
:104240001F9108958F929F92AF92BF92EF92FF922B
:104250000F931F93CF93DF938C01EB017A010F949F
:1042600050134B015C012CE2820E21E0921EA11C36
:10427000B11C0E9461D1F80186838F3F69F40F94CD
:104280005013681979098A099B0997FDF2CF81E1DA
:10429000F8018483C0E021C08E3F69F5F1E0EF1A98
:1042A000F1088FEF8EBDFE012FEF0DB407FEFDCF9D
:1042B0008EB581932EBDCF018C1B9D0B8E159F0556
:1042C000A0F30DB407FEFDCF8EB5CE0DDF1D8883A4
:1042D0000E9461D10E9461D1C1E0C80187DE8C2FAC
:1042E000DF91CF911F910F91FF90EF90BF90AF9012
:1042F0009F908F9008958FE0CBCF0F931F93CF9314
:10430000DF93EC018B0129DE40E052E0B801CE01E1
:10431000DF91CF911F910F9195CF0F931F93CF9363
:10432000DF93EC0189018F81833039F089E0440FFC
:10433000551F661F771F8A95D1F79A01AB0161E17E
:10434000CE0117DE811109C040E052E0B801CE0174
:10435000DF91CF911F910F9175CF84E08C83CE01B7
:1043600045DE80E0DF91CF911F910F9108958F92EC
:104370009F92AF92BF92CF92DF92EF92FF920F93F4
:104380001F93CF93DF93EC01162F1F821C824B8368
:104390000F9450136B017C0120EDC20E27E0D21E5A
:1043A000E11CF11CA89561E08B810F947D118B813C
:1043B0000F94B907209A289A219A2398229A81E08B
:1043C0000E9468D185E08D830E9468D10AE08FEF5A
:1043D0000E945CD10150D9F7A89520E030E0A901F6
:1043E00060E0CE01C6DD8E83813079F00F945013EA
:1043F0006C197D098E099F0997FDEFCF81E08C83B1
:10440000CE01F4DD1A8280E065C0A8952AEA31E089
:1044100040E050E068E0CE01ACDD853031F581E070
:104420008F83A8958F81812C912C5401823029F49F
:10443000812C912CA12C80E4B82E20E030E0A90141
:1044400067E3CE0196DDA501940169E2CE0191DD1D
:104450008E838823F1F00F9450136C197D098E0917
:104460009F0997FDEACF8AE0CACF04E00E9461D19C
:104470008E830150D9F78A3A11F482E0D1CF0F949C
:1044800050136C197D098E099F0997FDBFCF82E0FB
:10449000B6CF8F818230B9F420E030E0A9016AE321
:1044A000CE0167DD882311F088E0A9CF0E9461D199
:1044B000807C803C11F483E08F830E9461D10E9454
:1044C00061D10E9461D1CE0191DD81E08A831730F4
:1044D00070F41D83DF91CF911F910F91FF90EF90AA
:1044E000DF90CF90BF90AF909F908F90089588E11C
:1044F0008C8389CF0F931F93CF93DF93EC018B01B4
:1045000020E030E0A90169E034DD811109C040E11B
:1045100050E0B801CE01DF91CF911F910F9192CE63
:1045200080E18C83CE0162DD80E0DF91CF911F912D
:104530000F9108954091480421E042276CE070E01B
:104540000D946A0C4091480421E0422764E070E039
:104550000D946A0C4091480421E0422761E070E02C
:104560000D946A0C4091480421E0422761E070E01C
:104570000D946A0C4091480421E0422768E070E005
:104580000D946A0C4091480421E042276CE070E0F1
:104590000D946A0C41E061E070E00D946A0C40916A
:1045A000480421E042270D946A0C6CE070E00D9401
:1045B000E91264E070E00D94E91261E070E00D949E
:1045C000E91261E070E00D94E9126CE070E00D9486
:1045D000E912CF93C82FCB010E94A1C58DEE92E0C6
:1045E0000E94A1C58EED92E0CC2311F083EE92E003
:1045F000CF910C9467D02F923F924F925F926F921F
:104600007F928F929F92AF92BF92CF92DF92EF9262
:10461000FF920F931F93CF93DF93CDB7DEB72E9703
:104620000FB6F894DEBF0FBECDBF9A8389830E9478
:1046300073BF9B83082E000C990BFC01EE0FFF1F2C
:10464000EE0FFF1FE359FB4E80809180A280B38064
:104650008C010F5F1F4F2B81022E000C330B3E8706
:104660002D87F901EE0FFF1FEE0FFF1FE359FB4EE1
:1046700020813181428153812B833C834D835E8332
:104680002D843E843FEF231A330A9C01220F331FEF
:10469000A901480F591F58874F83FA018D859E85C0
:1046A000E80FF91FEE0FFF1FEE0FFF1FE05EFB4F3D
:1046B000C080D180E280F380F801EE0FFF1FEE0F83
:1046C000FF1FE359FB4EA501940160817181828136
:1046D00093810F94DF342B013C01A5019401E98102
:1046E000FA8160817181828193810F94DF346987BF
:1046F0007A878B879C87C801880F991F080F191F1D
:104700002D853E85200F311F220F331F220F331FAF
:10471000205E3B4F3E872D87A7019601ED85FE85E4
:1047200060817181828193810F94DF34A3019201B2
:104730000F94BC3529853A854B855C850F94BF3035
:10474000A70196010F94E0346B017C01EF81F8859D
:10475000E20DF31DEE0FFF1FEE0FFF1FE05EFB4F9C
:1047600080809180A280B380020D131DF801EE0FAE
:10477000FF1FEE0FFF1FE05EFB4FA501940160815C
:104780007181828193810F94DF34A30192010F9490
:10479000BC3529853A854B855C850F94BF30A501D2
:1047A00094010F94E034A70196010F94DF344B017C
:1047B0005C01F101EE0FFF1FEE0FFF1FE359FB4EEF
:1047C0002B813C814D815E816081718182819381E9
:1047D0000F94DF349B01AC01C501B4010F94BC35CB
:1047E0004B015C012B813C814D815E81E981FA8125
:1047F00064817581868197810F94DF349B01AC01C0
:10480000C501B4010F94BF30A70196010F94E034A5
:104810002E960FB6F894DEBF0FBECDBFDF91CF91BD
:104820001F910F91FF90EF90DF90CF90BF90AF90CE
:104830009F908F907F906F905F904F903F902F90C0
:1048400008953F924F925F926F927F928F929F92C4
:10485000AF92BF92CF92DF92EF92FF920F931F938E
:10486000CF93DF9361E081E00E944E75C0912608EE
:1048700085E0682E6C0E02E091E0E92E92E0F92EC0
:10488000D4E0DC1B7724739426E0C22E22E0D22EE3
:1048900013E01C1B32E1A32E32E0B32E502E5C1A23
:1048A00041E2842E42E0942E472C4C1A3C2E319447
:1048B000C11138C0809125088823B1F080916E0223
:1048C000882359F081E090912508911180E024E03F
:1048D00045E252E0632D0F949E0ECF5FC611E8CFE4
:1048E00085E080931A080CC080911C0810921C0867
:1048F000882321F30E94D07680911B088823F1F24F
:10490000DF91CF911F910F91FF90EF90DF90CF90AB
:10491000BF90AF909F908F907F906F905F904F90DF
:104920003F900895C13001F590912508913069F0CC
:1049300080916E02882389F281E0913009F080E055
:1049400020E247E152E0642DC6CF80911C0810920E
:104950001C08882369F39092B5078092B407809170
:104960001B08882329F3CCCFC23009F065C0109210
:104970002F081092330810923208109231081092CA
:10498000300890912508923071F080916E02882352
:1049900009F4A3CF81E0923009F080E020E24BE0FF
:1049A00052E0652D98CF80911C0810921C08882336
:1049B00061F3B092B507A092B40780911B088823D9
:1049C00021F39ECF70922F08109233081092320874
:1049D000109231081092300890912508933071F0B0
:1049E00080916E02882309F478CF81E0933009F03A
:1049F00080E020E24BE052E0612F6DCF80911C08F7
:104A000010921C08882361F3D092B507C092B407B6
:104A100080911B08882321F373CF80911C0810928A
:104A20001C088823E1F0F092B507E092B40780916A
:104A30001B088823A1F064CFC33021F2C43009F0F1
:104A40004CCF00932F081092330810923208109226
:104A5000310810923008909125089430F1F280913D
:104A60006E02882309F439CF81E0943009F080E0A8
:104A700020E24BE052E06D2F2ECF20E040E070E0CE
:104A800060E08FE796E20C94AF756091E9038FEFD9
:104A90000D943A238091E903682F0D943A236FEF28
:104AA0008091E9030D943A234F925F926F927F9227
:104AB0008F929F92AF92BF92CF92DF92EF92FF922E
:104AC0000F931F93CF93DF930091E90361E081E09F
:104AD0000E944E75C091260810E0000F111F00566D
:104AE0001D4F95E0592E5C0E2AE5E22E22E0F22EB3
:104AF000D3E0DC1B3FE4C32E35E2D32E48E6A42EE0
:104B000042E0B42E82E0782E7C1A54EA852E52E0E0
:104B1000952E81E0682E6C1A4C2E4194C11137C03D
:104B2000809125088823B1F080916E02882359F086
:104B300081E090912508911180E024E046E752E061
:104B4000642D0F949E0ECF5FC511E8CF84E0809353
:104B50001A080CC080911C0810921C08882321F3AD
:104B60000E94D07680911B088823F1F2DF91CF91CB
:104B70001F910F91FF90EF90DF90CF90BF90AF907B
:104B80009F908F907F906F905F904F900895C1306D
:104B900089F5F8018591949110922F08909333082C
:104BA00080933208109231081092300880912508C5
:104BB000813081F080916E02882329F21F929F92AA
:104BC0008F926F9281E090912508913009F47FC017
:104BD00080E07DC080911C0810921C08882351F34E
:104BE0008091E903682F0F943A2380911B08882352
:104BF00009F3BCCFC23009F047C0F8018591949108
:104C000010922F0890933308809332081092310845
:104C100010923008809125088230D1F080916E0288
:104C2000882309F490CFDF92CF92BF92AF927F9208
:104C300081E090912508923009F080E08F930E94E6
:104C400040750F900F900F900F900F900F907BCFAB
:104C500080911C0810921C08882301F320DF8091AA
:104C60001B088823D9F282CF80911C0810921C085F
:104C70008823F1F06091E9038FEF0F943A2380913C
:104C80001B088823A9F072CFC33009F05CCFF8016C
:104C90008591949110922F08909333088093320855
:104CA0001092310810923008809125088330E1F28B
:104CB00080916E02882309F446CF1F92FF92EF92F3
:104CC000DF9381E090912508933009F081CF8F9395
:104CD0000E9440750F900F900F900F900F9033CF60
:104CE00064E876E282E00D94AA2167E876E281E04A
:104CF0000D94AA216AE876E280E00D94AA216DE580
:104D000076E583E00D94AA2182E00C94C79481E0BB
:104D10000C94C79480E00C94C794CF92DF92EF92EA
:104D2000FF920F931F938FEBC82E81E0D82EF12CAA
:104D3000E12C01EC11E030E020E04DE355E261EDC3
:104D400071E086ED91E00E941D821F910F91FF900E
:104D5000EF90DF90CF900895CF93DF9300D01F9214
:104D6000CDB7DEB78DEC9CECACECBCE389839A83C9
:104D7000AB83BC83CE0101960E94E5750F900F9026
:104D80000F900F90DF91CF910895CF93DF9300D0D4
:104D90001F92CDB7DEB78DEC9CECACECBDE3898304
:104DA0009A83AB83BC83CE0101960E94E5750F9078
:104DB0000F900F900F90DF91CF910895CF93DF93D5
:104DC00000D01F92CDB7DEB780E090E0A0E8BFE34F
:104DD00089839A83AB83BC83CE0101960E94E575DB
:104DE0000F900F900F900F90DF91CF910895CF9378
:104DF000DF9300D01F92CDB7DEB780E090E0A0E255
:104E0000B1E489839A83AB83BC83CE0101960E946F
:104E1000E5750F900F900F900F90DF91CF9108954F
:104E20008091921584FF04C08460877F80939215DF
:104E30000895CF92DF92EF92FF920F931F93CF933B
:104E4000DF93CDB7DEB7EDB6FEB6DC010D900020E6
:104E5000E9F79D01281B390B285F3F4FEDB7FEB7DF
:104E6000E21BF30B0FB6F894FEBF0FBEEDBF0DB7FC
:104E70001EB70F5F1F4F9F938F9385ED91E19F9317
:104E80008F931F930F930F94F32F6801F4E0CF0ECD
:104E9000D11C0F900F900F900F900F900F90D60194
:104EA0008D916D01882349F0082E000C990B0F9409
:104EB000A837F60131978083F2CF60ED71E1C80128
:104EC0000F948C2F4FE350E0B80186EB97E00F94DE
:104ED000F9370FB6F894FEBE0FBEEDBEDF91CF914D
:104EE0001F910F91FF90EF90DF90CF900895FC01FC
:104EF000938591FF02C080E00895987121E0903180
:104F000009F020E08091921520FB85F9809392159D
:104F1000903141F08085873471F781E091859E372B
:104F200051F3089581E0FDCFFC0120E03EE2DB017A
:104F30004D91BD01403249F0283011F43083319653
:104F4000DB0111974C91408331962F5F2B3079F71D
:104F500010820895CF9380916613C1E08823C9F031
:104F6000809167139091681340915E1350915F1385
:104F70006091601370916113DC01ED91FC910288E6
:104F8000F389E02D2EE531E11995C82F811104C078
:104F9000C0E08C2FCF91089540916213509163131C
:104FA0006091641370916513411551056105710598
:104FB000B9F08091671390916813DC01ED91FC9139
:104FC0000288F389E02D2EE531E11995882301F35C
:104FD000109262131092631310926413109265136F
:104FE00010926613D6CFCF92DF92EF92FF92CF93BB
:104FF0006B017C01C42F80915E1390915F13A0918F
:105000006013B09161138C159D05AE05BF0521F1AC
:10501000A1DF811108C0C0E08C2FCF91FF90EF90ED
:10502000DF90CF9008958091671390916813DC0111
:10503000ED91FC910088F189E02D2EE531E1B70179
:10504000A6011995882339F3C0925E13D0925F139D
:10505000E0926013F0926113CC2321F081E0809301
:105060006613DACFC1E0D8CF4F925F926F927F92F2
:105070008F929F92AF92BF92CF92DF92EF92FF9268
:105080000F931F93CF93DF93EC01423051056105DD
:10509000710590F480E0DF91CF911F910F91FF9007
:1050A000EF90DF90CF90BF90AF909F908F907F90C8
:1050B0006F905F904F90089589859A85AB85BC85E8
:1050C0000196A11DB11D84179507A607B70710F318
:1050D0008F898031C1F5852E962EA72EBB248B8912
:1050E0009C89AD89BE89880E991EAA1EBB1E280107
:1050F00039016A017B0141E0C501B40174DF8823F5
:1051000049F29F89903181F5DD24EE24FF24F601D8
:10511000EE0FFF1FE25AFE4E118300839A899230F0
:1051200008F4B9CF4D815E816F817885840E951E1C
:10513000A61EB71E8092621390926313A09264130E
:10514000B0926513A8CF803209F0A4CF8B899C89D7
:10515000AD89BE894A015B01E7E0B694A7949794B4
:105160008794EA95D1F7BFCFE894C7F8DD24EE2401
:10517000FF24F601EE0FFF1FEE0FFF1FE25AFE4E57
:105180004082518262827382C9CFCF92DF92EF92C6
:10519000FF920F931F93CF93DF93FC01818592853C
:1051A000A385B4850196A11DB11D84179507A60797
:1051B000B70750F480E0DF91CF911F910F91FF90DE
:1051C000EF90DF90CF90089587898031A9F5BB27B4
:1051D000A72F962F852FC388D488E588F6888C0D55
:1051E0009D1DAE1DBF1DE9016A017B018F0140912C
:1051F0005E1350915F136091601370916113841777
:105200009507A607B70749F5F8018789803161F549
:10521000B701A601552766277727440F551F425A25
:105220005E4EFA0180819181B0E0A0E0888399838D
:10523000AA83BB8381E0BFCF803209F0BBCFC38894
:10524000D488E588F688DB01CA01C7E0B695A79542
:1052500097958795CA95D1F7C2CF40E0BC01CD01A3
:10526000C2DE8111D1CFA6CFB701A6014F77552756
:1052700066277727440F551F440F551F425A5E4E2D
:10528000FA0180819181A281B381BF70CFCF4F920B
:105290005F926F927F92AF92BF92CF92DF92EF9226
:1052A000FF920F931F93CF93DF9300D01F92CDB740
:1052B000DEB78C0149835A836B837C835901C12CEF
:1052C000D12C7601412C82E0582E612C712C498121
:1052D0005A816B817C819E012F5F3F4FC80155DF52
:1052E000882319F1F8018585A301920104C0220FDA
:1052F000331F441F551F8A95D2F7DA01C901C80E22
:10530000D91EEA1EFB1E49815A816B817C818789E7
:105310008031F1F481E0483F5F4F61057105B8F2DB
:10532000F501C082D182E282F3820F900F900F903C
:105330000F90DF91CF911F910F91FF90EF90DF9031
:10534000CF90BF90AF907F906F905F904F900895F7
:1053500081E0483F5F4F6F4F7F4008F4B8CFE0CF08
:105360000F931F93CF93DF93FC012381222331F00E
:1053700080E0DF91CF911F910F9108958B01EC0197
:10538000FB018789803139F582E08B831D8A1E8A73
:105390001F8A188E808D918DB0E0A0E025E0880FE7
:1053A000991FAA1FBB1F2A95D1F7898B9A8BAB8BAC
:1053B000BC8B1A8F098F81E08983188619861A861B
:1053C0001B861C821D821E821F82188A1C861D86D7
:1053D0001E861F86CECF803259F683E08B83428DA6
:1053E000538D648D758D4D8B5E8B6F8B788F9E0189
:1053F0002F5E3F4FC8014BDF8111DBCFB9CF8F92BA
:105400009F92AF92BF92CF92DF92EF92FF920F9353
:105410001F93CF93DF93EC018B8181110EC080E04D
:10542000DF91CF911F910F91FF90EF90DF90CF9080
:10543000BF90AF909F908F90089509891A892B890A
:105440003C89041715072607370748F34A015B0113
:10545000823031F488869986AA86BB8681E0E0CFC7
:1054600081149104A104B10449F4188619861A869E
:105470001B861C821D821E821F82F0CF0885198523
:105480002A853B85E98DFA8D858590E00996B901DD
:10549000A8014150510961097109082E04C076958F
:1054A0006795579547950A94D2F775016401E1E035
:1054B000CE1AD108E108F10804C0F694E794D79415
:1054C000C7948A95D2F7C416D506E606F70620F0EB
:1054D000012B022B032B09F58D899E89AF89B88D8D
:1054E0008C839D83AE83BF838E010C5F1F4FC114DD
:1054F000D104E104F10409F4ADCF4C815D816E81EA
:105500007F819801898D9A8D40DE91E0C91AD1087A
:10551000E108F1088111EBCF82CFC41AD50AE60A5F
:10552000F70AE2CF2F923F924F925F926F927F9253
:105530008F929F92AF92BF92CF92DF92EF92FF92A3
:105540000F931F93CF93DF93EC014B017A018B8173
:10555000811115C08FEF9FEFDF91CF911F910F91B8
:10556000FF90EF90DF90CF90BF90AF909F908F9083
:105570007F906F905F904F903F902F90089589811A
:1055800080FFE8CF89899A89AB89BC89488559858C
:105590006A857B85841B950BA60BB70BA70170E072
:1055A00060E084179507A607B70708F47C01670138
:1055B0001E0124E0220E311CC114D10409F4A7C03D
:1055C000488559856A857B855A0181E0B822898D95
:1055D0009A8D2A013B0129E0769467945794479469
:1055E0002A95D1F72B81FC01223079F5628D738DDC
:1055F000848D958D640D751D861D971D00E012E04C
:105600000A191B09C016D10608F486010115E2E04B
:105610001E0771F440905E1350905F13609060130A
:1056200070906113641575058605970509F04CC0E7
:1056300040E0D9DC882309F48DCFB501625A7E4E53
:10564000A801C4010F94BD3751C014811150142119
:10565000A114B10471F411110CC0452B462B472B3A
:1056600051F58D899E89AF89B88D8C839D83AE83DA
:10567000BF83E98DFA8D4C805D806E807F8022E053
:10568000421A510861087108858504C0440C551CF4
:10569000661C771C8A95D2F786859785A089B18983
:1056A000480E591E6A1E7B1EC301B201610F711D97
:1056B000811D911DA3CF4C815D816E817F81910100
:1056C00064DD8111D6CF46CFA0916713B0916813E6
:1056D000ED91FC9111970088F189E02D9401AB01C7
:1056E000BC01CD011995882309F434CF800E911E99
:1056F00088859985AA85BB85800F911FA11DB11D45
:1057000088879987AA87BB87C01AD10A55CFC70156
:1057100023CFCF93DF93EC01462F41706C857D85BD
:105720008E859F8560DC882351F0888920E2829FE6
:10573000C0011124825A9E4EDF91CF91089590E0CE
:1057400080E0FACFCF93DF93EC018B81882339F18E
:10575000898187FF21C061E0CE01DBDFFC01892B5D
:10576000F1F08081853ED9F08B81823040F48989C7
:105770009A89AB89BC89848F958FA68FB78F8D89C5
:105780009E89938F828F8D899E89AF89B88DB58BC5
:10579000A48B89818F778983DF91CF91DBCB81E0E7
:1057A000888380E0DF91CF910895CF93DF93EC0160
:1057B000C9DF1B82DF91CF91089510928A048091F6
:1057C00092158F77809392150E94F2C2882319F068
:1057D00087E793E1EACF0895CF93C0919215C2FF76
:1057E00010C0C7FD0EC00E94F2C280FBC7F9C09373
:1057F0009215809192158F7E806480939215CF913F
:105800000895DBDFF6CFCF93DF93809192158F7EE3
:10581000809392158091CE13882319F08BEC93E13D
:10582000C4DF8091931590919415DC01ED91FC916A
:105830000190F081E02D45E360E01995811112C0DF
:105840000E9408C784EC91E10E94A1C58091921545
:1058500084FF33C00F949A2083E080936E02DF911F
:10586000CF910895C0919315D091941561E0CE0128
:105870000F94D30481110BC060E0CE010F94D304C8
:10588000811105C00E9405C780EB91E1DDCF62E97F
:1058900073E18BEC93E164DD811105C00E9405C7C3
:1058A0008FE991E1D1CF809192158061809392151B
:1058B0000E9408C783E991E1C7CF8091F60788234A
:1058C00059F261E083E891E10E94DA7A0E946676FB
:1058D000C3CFCF93DF93EB01FC012381211104C0DF
:1058E00080E0DF91CF9108952250223028F48FE29A
:1058F0008883198281E0F5CF60E00BDF009781F3A8
:10590000DC0160E080E09EE22D91203299F0883049
:1059100031F49E01260F311DF90190836F5F9E01C6
:10592000260F311DAD0141505109FA014081F901A5
:1059300040836F5F8F5F8B3039F7FE01E60FF11DFB
:105940001082D8CFCF93DF93EC01CB01E881F981AE
:1059500060817181BEDF28813981D901ED91FC918F
:10596000AA81BB818C919081992359F08936C8F422
:10597000CF010196F901918380838C918F5F8C9385
:10598000EACF893670F48FE28083E881F9818081E3
:105990009181019691838083EA81FB8180818F5F71
:1059A0008083DF91CF9108953F924F925F926F92E3
:1059B0007F928F929F92AF92BF92CF92DF92EF929F
:1059C000FF920F931F93CF93DF93CDB7DEB72C9742
:1059D0000FB6F894DEBF0FBECDBF5C01DC01599657
:1059E0008D909C90F40181859285A385B4859C015E
:1059F000AD012F5F3F4F4F4F5F4F29873A874B874E
:105A00005C87D50114964D905D906D907C901797B2
:105A1000411451046104710409F458C0BFEF4B1ADA
:105A20005B0A6B0A7B0A312C730162011D821E82A4
:105A30001F821886F40181859285A385B4852D8106
:105A40003E814F815885281739074A075B0708F0C0
:105A500054C089859A85AB85BC858C159D05AE059E
:105A6000BF0550F482E0C82ED12CE12CF12C92E03D
:105A7000492E512C612C712C9E012F5F3F4FB70195
:105A8000A601C40182DB8823C1F189819A81AB819F
:105A9000BC81892B8A2B8B2B01F1260137019FEFCB
:105AA000491A590A690A790A2D813E814F81588520
:105AB0002F5F3F4F4F4F5F4F2D833E834F8358875C
:105AC0003FEFC31AD30AE30AF30AB4CF40805180F0
:105AD0006280738033243394A7CFC414D504E604C2
